:08000000803102288731FD2F39
:100ED8003A30210099009A01980108000130210058
:100EE8009D00C0309E009F019B019C010800873136
:100EF8006C2787318731DD278731873172270800D2
:100F0800F1007108F000F00DF00D21001D087006C9
:100F1800833970069D000800F3007308F200F20D93
:100F2800F20D21001D087206833972069D001D14FA
:100F380021009D149D189E2F1C08F1001B08F0002D
:100F4800080021000E118E1022000E150630873180
:100F58008427873122008E1021008E1405308731B6
:100F680090277108F7007008F6007708F5007608F2
:100F7800F400080087317B2787318731A52787311F
:100F88007508FA007408F9007A08803AF800813088
:100F98007802031DD12F003079020318D62F2200C2
:100FA8008C16D82F22008C125330F800F80BDA2F49
:100FB800C12F22008C011F3021008C001730230024
:100FC8008C0022008D01F03021008D00303023008C
:100FD8008D0024008D01043022008E00FB3021009A
:100FE8008E00CB3023008E0024008E01210095173F
:080FF800080020008731BE2F24
:020000040001F9
:06000E00FC3FFF3F9F3F95
:00000001FF
