:08000000803102288731FD2F39
:100C8A00F10071088631502608003A302100990097
:100C9A009A0198010800F0002000101E512E7008D9
:100CAA0023009A000800013021009D00C0309E00F8
:100CBA009F019B019C010800483023009F0080305F
:100CCA009D0026309E000C309B009C010800863156
:100CDA004A26863187310C27863186315826863155
:100CEA00863161260800F3007308F200F20DF20D56
:100CFA0021001D087206833972069D001D14210009
:100D0A009D149D18862E1C08F1001B08F00008008F
:100D1A0086316C2686310A302000A0008830A10076
:100D2A00043086317826863171082000A3007008C5
:100D3A00A20087314627863152302000AF00293081
:100D4A00AE00AE0BA62EAF0BA62E0032902E780860
:100D5A0079040319D32EFD01FD0AF91BBE2E0130B9
:100D6A00F835F90D890BB52E0130FC007C08FD071A
:100D7A00B22E79087B02031DC42E78087A02031C5E
:100D8A00CA2E7808FA027908FB3B0130F936F80CCA
:100D9A00890BCB2E0130FD02031DBE2E7B08F90004
:100DAA007A08F8000800F501F601700871040319C1
:100DBA00072FF701F70AF11BEC2E0130F035F10D80
:100DCA00890BE32E0130F4007408F707E02E013096
:100DDA00F535F60D890BED2E71087302031DF72EFA
:100DEA0070087202031CFE2E7008F2027108F33BAF
:100DFA0075140130F136F00C890BFF2E0130F70221
:100E0A00031DEC2E7608F1007508F0000800220098
:100E1A008C013F3021008C00173023008C00220007
:100E2A008D01F03021008D00103023008D00240048
:100E3A008D0122008E01FF3021008E00CF30230069
:100E4A008E0024008E012100951700308B1B013083
:100E5A00F0008B1355303C008F00AA308F000F1022
:100E6A000D30A40012303D009F0055303C008F0029
:100E7A00AA308F000F14701C442F8B1708008B1395
:100E8A00080022302000A4002408A800200021081D
:100E9A00A5002008A400A00A0319A10A24088400B6
:100EAA00250885000008A6002608AD002D080319AC
:100EBA00080025302D060319672F2D08863145268F
:100ECA0087314B2F2000A9012108A5002008A40082
:100EDA00A00A0319A10A240884002508850000082D
:100EEA00AD00003A0319FC2F643A0319802F0D3A1A
:100EFA000319802F4B2F280886008701403FAB003B
:100F0A00413FAC000230A4002408A807AC1F962F6A
:100F1A000330A4002408A904AB09AC09AB0A0319DD
:100F2A00AC0AAD01AD0A05302D060319BB2F2D08F9
:100F3A00A400A501A435A50D00302407840088303B
:100F4A00253D8500003FA600013FA70027082C0287
:100F5A00031DB12F26082B02031CBB2F0130A4004E
:100F6A002408AD0705302D06031D9C2F29080339D7
:100F7A000319C32F2D3086314526873120002D08CD
:100F8A00A4002408AA00FF302000A4002408AA070D
:100F9A002A0A03194B2F0A30F8000030F9002A08F0
:100FAA00A400A501A435A50D0030240784008830CB
:100FBA00253D8500003FF000013FF1002C08F300B9
:100FCA002B08F2008631D82687317108FB00700899
:100FDA00FA008631AC2687317808303E2000A60018
:100FEA002608AD002D08863145268731C82F08000E
:100FFA00200086318D2E013400340A3400346434E2
:10100A000034E834033410342734503461346E34F5
:10101A00743465347234693474346134203442343B
:10102A00723461346D34693464346F342034613419
:10103A0070347534723461342034763465346E34E5
:10104A002134213421342134213420343D342034D4
:0A105A00253464340D340A340034E8
:020000040001F9
:06000E00FC3FFF3F9F3F95
:00000001FF
